:100000000C9437000C94290A0C94290A0C94290AA0
:100010000C94290A0C94290A0C94290A0C94290A94
:100020000C94290A0C94290A0C94290A0C94290A84
:100030000C94290A0C94290A0C94290A0C94290A74
:100040000C94290A0C94290A0C94290A0C94290A64
:100050000C94290A00600078001460007800808009
:10006000008000810000E7008100820014781124E4
:100070001FBECFE5D8E0DEBFCDBFE4E5F0E040E055
:1000800017C0B591A59135912591059107FD0CC03B
:1000900095918591EF01F92FE82F05900D92A21708
:1000A000B307D9F7FE0104C01D92A217B307E1F709
:1000B000EE36F40731F70E9474000C94D809F894D6
:0200C000FFCF70
:1000C200526573756C74203A200020202020202075
:1000D2002057656C636F6D65202020202020200052
:0500E2004F503A200020
:0100E7002BED
:1000E800CF93DF93CDB7DEB7A5970FB6F894DEBFF1
:1000F8000FBECDBF22EC30E040E08AE0F901DE011E
:100108001196742F0E94C0092CEC30E040E086E183
:10011800F901DE011B96742F0E94C00922EE30E01F
:1001280040E085E0F901DE019196742F0E94C00934
:100138000E9489070E94C707CE010B960E944D09AD
:100148002FE78AE196E0215080409040E1F700C017
:10015800000081E00E94810961E082E00E94FA08C3
:10016800CE0181960E944D091BE20E94E20680930F
:1001780081008F3FD1F390ED980F9A3048F50E9497
:10018800710920E030E040E251E460917C00709118
:100198007D0080917E0090917F000E94220A6B0171
:1001A8007C016091810070E060537109072E000C9A
:1001B800880B990B0E940608A70196010E94EC097A
:1001C80060937C0070937D0080937E0090937F0005
:1001D800809181008B3231F08D3221F08A3211F01A
:1001E8008F32F1F40E947109109181001093800000
:1001F80080917C0090917D00A0917E00B0917F005D
:100208008093780090937900A0937A00B0937B0054
:1002180010927C0010927D0010927E0010927F0058
:10022800809181008F33F1F481E00E94810910925E
:100238007C0010927D0010927E0010927F00109238
:1002480078001092790010927A0010927B008BE26D
:100258008093800061E082E00E94FA08CE018196D6
:100268000E944D09809181008D3309F07ECF61E0B5
:1002780084E00E94FA08CE0101960E944D091B32C3
:1002880051F018F41A3289F170CF1D32C9F01F32BB
:1002980009F440C06ACF60917C0070917D00809124
:1002A8007E0090917F0020917800309179004091F4
:1002B8007A0050917B000E94EC090E94A30155CF5F
:1002C80020917C0030917D0040917E0050917F000C
:1002D800609178007091790080917A0090917B000C
:1002E8000E94EB090E94A30140CF60917C007091AD
:1002F8007D0080917E0090917F0020917800309160
:10030800790040917A0050917B000E94220A0E9455
:10031800A3012BCF609178007091790080917A00C9
:1003280090917B0020917C0030917D0040917E006F
:0E03380050917F000E941E0A0E94A30116CF62
:100346004F925F926F927F928F929F92AF92BF92DF
:10035600CF92DF92EF92FF92CF93DF9300D000D03F
:10036600CDB7DEB769837A838B839C830E94F209BB
:100376004B015C0120E030E0A90169817A818B8123
:100386009C810E94190A811104C080E30E947109B0
:1003960089C020E030E0A90169817A818B819C8146
:1003A6000E94190A882364F489819A81AB81BC81F1
:1003B600B05889839A83AB83BC838DE20E9471090E
:1003C600C12CD12C7601412C512C3201439425C0ED
:1003D600C501B4012AE030E040E050E00E94360951
:1003E60049015A019FEFC91AD90AE90AF90AD30144
:1003F600C201880F991FAA1FBB1FAC01BD01440F84
:10040600551F661F771F440F551F661F771F2C0148
:100416003D01440E551E661E771E81149104A104EB
:10042600B104B1F620E030E44CE156E469817A810A
:100436008B819C810E94220A0E94F2094B015C0179
:10044600A8EEB3E0A30192010E94CD092B013C0165
:1004560024C0C501B401A30192010E94D8082983D2
:100466004B015C01C301B2012AE030E040E050E0FC
:100476000E94D80829013A01C114D104E104F1040B
:1004860019F48EE20E947109A1E0CA1AD108E108A6
:10049600F1088981805D0E9471094114510461044B
:1004A6007104B9F60F900F900F900F90DF91CF91D6
:1004B600FF90EF90DF90CF90BF90AF909F908F907E
:0A04C6007F906F905F904F900895B3
:1004D000411162C09B01482F2D5F3F4F4F4FF901E3
:1004E000949147FD90819130D9F030F0923061F1D4
:1004F000933009F43DC008952AB3A82FCB0102968A
:10050000A11DFC013491A7FD308181E090E002C083
:10051000880F991F3A95E2F7809582238ABB089548
:1005200027B3A82FCB010296A11DFC013491A7FD92
:10053000308181E090E002C0880F991F3A95E2F780
:100540008095822387BB089524B3A82FCB01029600
:10055000A11DFC013491A7FD308181E090E002C033
:10056000880F991F3A95E2F78095822384BB0895FE
:1005700021B3A82FCB010296A11DFC013491A7FD48
:10058000308181E090E002C0880F991F3A95E2F730
:100590008095822381BB0895413009F05CC09B01A6
:1005A000482F2D5F3F4F4F4FF901949147FD9081A8
:1005B0009130C9F028F0923049F19330D1F108958B
:1005C0002AB3A82FCB010296A11DFC013491A7FDEF
:1005D000308181E090E002C0880F991F3A95E2F7E0
:1005E000822B8ABB089527B3A82FCB010296A11DA9
:1005F000FC013491A7FD308181E090E002C0880FBA
:10060000991F3A95E2F7822B87BB089524B3A82F50
:10061000CB010296A11DFC013491A7FD308181E040
:1006200090E002C0880F991F3A95E2F7822B84BBB5
:10063000089521B3A82FCB010296A11DFC0134918E
:10064000A7FD308181E090E002C0880F991F3A95A4
:08065000E2F7822B81BB089543
:10065800411162C09B01482F2D5F3F4F4F4FF90159
:10066800949147FD90819130D9F030F0923061F14A
:10067800933009F43DC008952BB3A82FCB010296FF
:10068800A11DFC013491A7FD308181E090E002C0FA
:10069800880F991F3A95E2F7809582238BBB0895BE
:1006A80028B3A82FCB010296A11DFC013491A7FD08
:1006B800308181E090E002C0880F991F3A95E2F7F7
:1006C8008095822388BB089525B3A82FCB01029675
:1006D800A11DFC013491A7FD308181E090E002C0AA
:1006E800880F991F3A95E2F78095822385BB089574
:1006F80022B3A82FCB010296A11DFC013491A7FDBE
:10070800308181E090E002C0880F991F3A95E2F7A6
:100718008095822382BB0895413009F05CC09B011B
:10072800482F2D5F3F4F4F4FF901949147FD90811E
:100738009130C9F028F0923049F19330D1F1089501
:100748002BB3A82FCB010296A11DFC013491A7FD64
:10075800308181E090E002C0880F991F3A95E2F756
:10076800822B8BBB089528B3A82FCB010296A11D1D
:10077800FC013491A7FD308181E090E002C0880F30
:10078800991F3A95E2F7822B88BB089525B3A82FC5
:10079800CB010296A11DFC013491A7FD308181E0B7
:1007A80090E002C0880F991F3A95E2F7822B85BB2B
:1007B800089522B3A82FCB010296A11DFC01349104
:1007C800A7FD308181E090E002C0880F991F3A951B
:0807D800E2F7822B82BB0895B9
:1007E000843008F099C0683008F098C0813059F121
:1007F00038F0823009F44AC0833009F46AC090C0EE
:100800004130A1F480B78B7F80BF2AB381E090E0B4
:1008100002C0880F991F6A95E2F7982F909592234E
:100820009ABB9AB3892B8ABB81E008952BB381E0F0
:1008300090E002C0880F991F6A95E2F780958223A5
:100840008BBB81E008954130A1F480B78B7F80BFDE
:1008500027B381E090E002C0880F991F6A95E2F704
:10086000982F9095922397BB98B3892B88BB81E0F2
:10087000089528B381E090E002C0880F991F6A951F
:10088000E2F78095822388BB81E008954130A1F48E
:1008900080B78B7F80BF24B381E090E002C0880FD7
:1008A000991F6A95E2F7982F9095922394BB95B380
:1008B000892B85BB81E0089525B381E090E002C0DB
:1008C000880F991F6A95E2F78095822385BB81E0A6
:1008D00008954130A1F480B78B7F80BF21B381E0C0
:1008E00090E002C0880F991F6A95E2F7982F9095C3
:1008F000922391BB92B3892B82BB81E0089522B3EE
:1009000081E090E002C0880F991F6A95E2F7809518
:10091000822382BB81E0089580E0089580E00895FD
:0409200081E00895D5
:10092400843008F07BC0683008F07AC04130C1F5EB
:10093400813091F028F08230D9F0833029F172C0EF
:100944002AB381E090E002C0880F991F6A95E2F70C
:10095400822B8ABB81E0089527B381E090E002C036
:10096400880F991F6A95E2F7822B87BB81E008956F
:1009740024B381E090E002C0880F991F6A95E2F7E2
:10098400822B84BB81E0089521B381E090E002C012
:10099400880F991F6A95E2F7822B81BB81E0089545
:1009A400411142C0813099F028F08230E9F083305F
:1009B40041F13CC02AB381E090E002C0880F991F46
:1009C4006A95E2F7809582238ABB81E0089527B374
:1009D40081E090E002C0880F991F6A95E2F7809544
:1009E400822387BB81E0089524B381E090E002C0B4
:1009F400880F991F6A95E2F78095822384BB81E072
:100A0400089521B381E090E002C0880F991F6A9590
:100A1400E2F78095822381BB81E0089580E0089508
:100A240080E0089581E0089580E0089581E00895CC
:100A3400843008F07BC0683008F07AC04130C1F5DA
:100A4400813091F028F08230D9F0833029F172C0DE
:100A54002BB381E090E002C0880F991F6A95E2F7FA
:100A6400822B8BBB81E0089528B381E090E002C023
:100A7400880F991F6A95E2F7822B88BB81E008955D
:100A840025B381E090E002C0880F991F6A95E2F7D0
:100A9400822B85BB81E0089522B381E090E002C0FF
:100AA400880F991F6A95E2F7822B82BB81E0089533
:100AB400411142C0813099F028F08230E9F083304E
:100AC40041F13CC02BB381E090E002C0880F991F34
:100AD4006A95E2F7809582238BBB81E0089528B361
:100AE40081E090E002C0880F991F6A95E2F7809533
:100AF400822388BB81E0089525B381E090E002C0A1
:100B0400880F991F6A95E2F78095822385BB81E05F
:100B1400089522B381E090E002C0880F991F6A957E
:100B2400E2F78095822382BB81E0089580E00895F6
:100B340080E0089581E0089580E0089581E00895BB
:100B440010C00E94000A58F00E94F90940F029F4EC
:100B54005F3F29F00C940E0A51110C94080A0C946E
:100B6400260A0E94B60868F39923B1F3552391F33A
:100B7400951B550BBB27AA2762177307840738F008
:100B84009F5F5F4F220F331F441FAA1FA9F335D065
:100B94000E2E3AF0E0E832D091505040E695001C19
:100BA400CAF72BD0FE2F29D0660F771F881FBB1FD3
:100BB400261737074807AB07B0E809F0BB0B802DB1
:100BC400BF01FF2793585F4F3AF09E3F510578F0DD
:100BD4000C940E0A0C94080A5F3FE4F3983ED4F395
:100BE400869577956795B795F7959F5FC9F7880FB1
:100BF400911D9695879597F90895E1E0660F771F03
:100C0400881FBB1F621773078407BA0720F0621B93
:0E0C1400730B840BBA0BEE1F88F7E095089562
:100C22000FC00E94F90938F00E94000A20F09523B3
:100C320011F00C940E0A0C94260A11240C94080A42
:100C42000E94B60870F3959FC1F3950F50E0551FAF
:100C5200629FF001729FBB27F00DB11D639FAA270F
:100C6200F00DB11DAA1F649F6627B00DA11D661F5E
:100C7200829F2227B00DA11D621F739FB00DA11D7F
:100C8200621F839FA00D611D221F749F3327A00D39
:100C9200611D231F849F600D211D822F762F6A2FD5
:100CA20011249F5750409AF0F1F088234AF0EE0F3A
:100CB200FF1FBB1F661F771F881F91505040A9F767
:100CC2009E3F510580F00C940E0A0C94080A5F3F77
:100CD200E4F3983ED4F3869577956795B795F795A3
:100CE200E7959F5FC1F7FE2B880F911D969587951B
:040CF20097F90895D1
:100CF60011C00E94F90938F00E94000A20F039F468
:100D06009F3F19F426F40C94260A0EF4E095E7FBAF
:100D16000C940E0AE92F0E94B60858F3BA17620718
:100D260073078407950720F079F4A6F50C94070A53
:100D36000EF4E0950B2EBA2FA02D0B01B9019001F0
:100D46000C01CA01A0011124FF27591B99F0593F34
:100D560050F4503E68F11A16F040A22F232F342F7C
:100D66004427585FF3CF469537952795A795F040CA
:100D76005395C9F77EF41F16BA0B620B730B840BDF
:100D8600BAF09150A1F0FF0FBB1F661F771F881F97
:100D9600C2F70EC0BA0F621F731F841F48F48795EF
:100DA60077956795B795F7959E3F08F0B0CF9395E1
:0E0DB600880F08F09927EE0F979587950895FE
:100DC400FF920F931F93CF93DF930F92CDB7DEB7AC
:100DD40004E0FF24FA944EC040E0602F82E00E94B9
:100DE4001A0510E03EC0AE014F5F5F4F612F82E0F5
:100DF4000E9447078981811133C083ED90E30197F5
:100E0400F1F700C00000AE014F5F5F4F612F82E039
:100E14000E9447078981811110C0812F90E0202F03
:100E240030E024503109880F991F880F991F805A88
:100E34009F4FFC01E20FF31FF080AE014F5F5F4F45
:100E4400612F82E00E94470707C0AE014F5F5F4FEA
:100E5400612F82E00E94470789818823B1F304C08F
:100E64001F5F143008F4BFCF41E0602F82E00E947E
:100E74001A050F5F083008F4AFCF8F2D0F90DF9164
:0A0E8400CF911F910F91FF90089588
:100E8E008430D0F56830D0F5813091F028F0823082
:100E9E00D9F0833029F134C089B390E002C0959522
:100EAE0087956A95E2F78170FA01808381E0089553
:100EBE0086B390E002C0959587956A95E2F78170AA
:100ECE00FA01808381E0089583B390E002C0959586
:100EDE0087956A95E2F78170FA01808381E0089523
:100EEE0080B390E002C0959587956A95E2F7817080
:100EFE00FA01808381E0089580E0089580E00895EE
:040F0E0081E00895E1
:100F120064E770E080E80E94190960E770E080E809
:100F22000E94190983ED90E30197F1F700C00000D8
:100F32000E94140A89E698E10197F1F700C00000C7
:100F420088E30E94810981EE94E00197F1F700C0E5
:100F5200000088E30E94810992E39A95F1F788E301
:100F62000E94810981E00E94810982E00E94810938
:100F720086E00E9481098CE00E94810980E80E943B
:0C0F8200810961E080E00E94FA080895F7
:100F8E0041E060E082E00E94F00341E061E082E037
:100F9E000E94F00341E062E082E00E94F00341E033
:100FAE0063E082E00E94F00341E064E082E00E9490
:100FBE00920441E065E082E00E94920441E066E026
:100FCE0082E00E94920441E067E082E00E94920477
:100FDE0041E064E082E00E941A0541E065E082E0B3
:100FEE000E941A0541E066E082E00E941A0541E087
:0A0FFE0067E082E00E941A050895E2
:10100800E89409C097FB3EF490958095709561959A
:101018007F4F8F4F9F4F9923A9F0F92F96E9BB2750
:101028009395F695879577956795B795F111F8CFCC
:10103800FAF4BB0F11F460FF1BC06F5F7F4F8F4F37
:101048009F4F16C0882311F096E911C0772321F02D
:101058009EE8872F762F05C0662371F096E8862FC5
:1010680070E060E02AF09A95660F771F881FDAF71C
:0A107800880F9695879597F9089563
:101082000E94BE0888F09F5798F0B92F9927B75150
:10109200B0F0E1F0660F771F881F991F1AF0BA951A
:1010A200C9F714C0B13091F00E94070AB1E0089567
:1010B2000C94070A672F782F8827B85F39F0B93F59
:1010C200CCF3869577956795B395D9F73EF49095CD
:0E10D2008095709561957F4F8F4F9F4F0895C9
:1010E000990F0008550FAA0BE0E8FEEF1616170639
:1010F000E807F907C0F012161306E407F50798F0A1
:10110000621B730B840B950B39F40A2661F0232BB9
:10111000242B252B21F408950A2609F4A140A69535
:081120008FEF811D811D089570
:10112800CF92DF92EF9280E790E06C0120E8E22E08
:1011380041E08E2DB6010E942C0389EF90E00197C3
:10114800F1F700C0000040E08E2DB6010E942C038C
:1011580089EF90E00197F1F700C00000EF90DF9071
:04116800CF90089587
:10116C0057FD9058440F551F59F05F3F71F047954C
:10117C00880F97FB991F61F09F3F79F08795089531
:10118C00121613061406551FF2CF4695F1DF08C050
:10119C00161617061806991FF1CF8695710561056D
:0411AC000894089506
:1011B000A1E21A2EAA1BBB1BFD010DC0AA1FBB1F5B
:1011C000EE1FFF1FA217B307E407F50720F0A21BCD
:1011D000B30BE40BF50B661F771F881F991F1A943A
:1011E00069F760957095809590959B01AC01BD0164
:0411F000CF0108958E
:1011F400823071F018F4813031F00895833069F051
:10120400843081F008958FE7860F0E948109089544
:101214008FEB860F0E948109089583E9860F0E944F
:0E1224008109089583ED860F0E9481090895C7
:10123200CF92DF92EF926B01E82EFB014491E7FC23
:1012420040818E2DB6010E946802AE2DC601019624
:10125200A11DFC014491A7FD40818E2DB6010E9483
:0A1262002C03EF90DF90CF90089569
:10126C00052E97FB1EF400940E94E30957FD07D04E
:10127C000E94D80807FC03D04EF40C94E309509557
:0E128C004095309521953F4F4F4F5F4F08958D
:10129A000F931F93CF938C01C0E003C00E94710982
:1012AA00CF5FF801EC0FF11D80818111F7CFCF914B
:0612BA001F910F91089541
:1012C000092E0394000C11F4882352F0BB0F40F454
:1012D000BF2B11F460FF04C06F5F7F4F8F4F9F4F94
:0212E00008956F
:1012E200CF93C82F64E770E080E841E00E942C03AE
:1012F2006C2F80E00E94A1090E949408CF9108956A
:10130200CF93C82F64E770E080E840E00E942C038E
:101312006C2F80E00E94A1090E949408CF91089549
:10132200813041F028F0823039F0833039F008956D
:101332006ABB089567BB089564BB089561BB0895B5
:10134200813041F028F0823039F0833039F008954D
:101352006BBB089568BB089565BB089562BB089591
:10136200A29FB001B39FC001A39F700D811D1124E4
:0E137200911DB29F700D811D1124911D0895D3
:10138000992777FD05C005900D920197E1F7089523
:0A13900001900D920197E1F7089516
:10139A000E94B109A59F900DB49F900DA49F800D46
:0613AA00911D11240895BD
:1013B000EC010E942E0A0E942D0ACE010E942F0AE3
:0613C000CE010E942B0A81
:1013C60090958095709561957F4F8F4F9F4F0895AB
:0E13D6005058BB27AA270E947B060C94600982
:0E13E4000E9441086894B1110C94080A089503
:0E13F20000240A941616170618060906089518
:0E14000000240A941216130614060506089519
:0E140E00E894BB2766277727CB0197F908954E
:0C141C0097F99F6780E870E060E0089599
:0A1428006FEF80E00E949109089523
:0A1432000E94700808F481E008959C
:08143C000E94A2050C94600956
:081444000E9411060C946009DE
:06144C009FEF80EC089503
:041452000C940000F6
:041456000E945F0091
:02145A000895F3
:02145C000895F1
:02145E000895EF
:101460003738392F3435362A3132332D3F303D2B42
:041470000100010175
:041474000100000172
:011478003043
:00000001FF
